{
  "_format": "hh-sol-artifact-1",
  "contractName": "Counter",
  "sourceName": "contracts/Counter.sol",
  "abi": [
    {
      "inputs": [],
      "stateMutability": "nonpayable",
      "type": "constructor"
    },
    {
      "inputs": [
        {
          "internalType": "uint256",
          "name": "x",
          "type": "uint256"
        }
      ],
      "name": "add",
      "outputs": [],
      "stateMutability": "nonpayable",
      "type": "function"
    },
    {
      "inputs": [],
      "name": "count",
      "outputs": [],
      "stateMutability": "nonpayable",
      "type": "function"
    },
    {
      "inputs": [],
      "name": "counter",
      "outputs": [
        {
          "internalType": "uint256",
          "name": "",
          "type": "uint256"
        }
      ],
      "stateMutability": "view",
      "type": "function"
    },
    {
      "inputs": [],
      "name": "owner",
      "outputs": [
        {
          "internalType": "address",
          "name": "",
          "type": "address"
        }
      ],
      "stateMutability": "view",
      "type": "function"
    }
  ],
  "bytecode": "0x60a060405234801561001057600080fd5b503373ffffffffffffffffffffffffffffffffffffffff1660808173ffffffffffffffffffffffffffffffffffffffff168152505060016000819055506100986040518060400160405280601481526020017f636f756e74657220697320696e6974203a20257300000000000000000000000081525060005461009d60201b6101a11760201c565b610241565b61013b82826040516024016100b3929190610211565b6040516020818303038152906040527fb60e72cc000000000000000000000000000000000000000000000000000000007bffffffffffffffffffffffffffffffffffffffffffffffffffffffff19166020820180517bffffffffffffffffffffffffffffffffffffffffffffffffffffffff838183161783525050505061013f60201b60201c565b5050565b60008151905060006a636f6e736f6c652e6c6f679050602083016000808483855afa5050505050565b600081519050919050565b600082825260208201905092915050565b60005b838110156101a2578082015181840152602081019050610187565b60008484015250505050565b6000601f19601f8301169050919050565b60006101ca82610168565b6101d48185610173565b93506101e4818560208601610184565b6101ed816101ae565b840191505092915050565b6000819050919050565b61020b816101f8565b82525050565b6000604082019050818103600083015261022b81856101bf565b905061023a6020830184610202565b9392505050565b6080516105196102626000396000818160b5015261017f01526105196000f3fe608060405234801561001057600080fd5b506004361061004c5760003560e01c806306661abd146100515780631003e2d21461005b57806361bc221a146100775780638da5cb5b14610095575b600080fd5b6100596100b3565b005b610075600480360381019061007091906102a1565b61015c565b005b61007f610177565b60405161008c91906102dd565b60405180910390f35b61009d61017d565b6040516100aa9190610339565b60405180910390f35b7f000000000000000000000000000000000000000000000000000000000000000073ffffffffffffffffffffffffffffffffffffffff163373ffffffffffffffffffffffffffffffffffffffff1614610141576040517f08c379a0000000000000000000000000000000000000000000000000000000008152600401610138906103b1565b60405180910390fd5b60056000808282546101539190610400565b92505081905550565b8060008082825461016d9190610400565b9250508190555050565b60005481565b7f000000000000000000000000000000000000000000000000000000000000000081565b61023982826040516024016101b79291906104b3565b6040516020818303038152906040527fb60e72cc000000000000000000000000000000000000000000000000000000007bffffffffffffffffffffffffffffffffffffffffffffffffffffffff19166020820180517bffffffffffffffffffffffffffffffffffffffffffffffffffffffff838183161783525050505061023d565b5050565b60008151905060006a636f6e736f6c652e6c6f679050602083016000808483855afa5050505050565b600080fd5b6000819050919050565b61027e8161026b565b811461028957600080fd5b50565b60008135905061029b81610275565b92915050565b6000602082840312156102b7576102b6610266565b5b60006102c58482850161028c565b91505092915050565b6102d78161026b565b82525050565b60006020820190506102f260008301846102ce565b92915050565b600073ffffffffffffffffffffffffffffffffffffffff82169050919050565b6000610323826102f8565b9050919050565b61033381610318565b82525050565b600060208201905061034e600083018461032a565b92915050565b600082825260208201905092915050565b7f6e6f74206f776e65720000000000000000000000000000000000000000000000600082015250565b600061039b600983610354565b91506103a682610365565b602082019050919050565b600060208201905081810360008301526103ca8161038e565b9050919050565b7f4e487b7100000000000000000000000000000000000000000000000000000000600052601160045260246000fd5b600061040b8261026b565b91506104168361026b565b925082820190508082111561042e5761042d6103d1565b5b92915050565b600081519050919050565b60005b8381101561045d578082015181840152602081019050610442565b60008484015250505050565b6000601f19601f8301169050919050565b600061048582610434565b61048f8185610354565b935061049f81856020860161043f565b6104a881610469565b840191505092915050565b600060408201905081810360008301526104cd818561047a565b90506104dc60208301846102ce565b939250505056fea2646970667358221220bdac416bdf6783af49d4854e02e1523433ec2b7ae3f39e28c6e3875b7a972e0264736f6c63430008120033",
  "linkReferences": {},
  "deployedLinkReferences": {}
}